{
	"day1/ValueType.sol": {
		"valueType": {
			"abi": [
				{
					"inputs": [],
					"name": "a",
					"outputs": [
						{
							"internalType": "uint256",
							"name": "",
							"type": "uint256"
						}
					],
					"stateMutability": "view",
					"type": "function"
				},
				{
					"inputs": [],
					"name": "b",
					"outputs": [
						{
							"internalType": "int256",
							"name": "",
							"type": "int256"
						}
					],
					"stateMutability": "view",
					"type": "function"
				},
				{
					"inputs": [],
					"name": "c",
					"outputs": [
						{
							"internalType": "string",
							"name": "",
							"type": "string"
						}
					],
					"stateMutability": "view",
					"type": "function"
				},
				{
					"inputs": [],
					"name": "d",
					"outputs": [
						{
							"internalType": "bool",
							"name": "",
							"type": "bool"
						}
					],
					"stateMutability": "view",
					"type": "function"
				},
				{
					"inputs": [],
					"name": "e",
					"outputs": [
						{
							"internalType": "address",
							"name": "",
							"type": "address"
						}
					],
					"stateMutability": "view",
					"type": "function"
				},
				{
					"inputs": [],
					"name": "f",
					"outputs": [
						{
							"internalType": "bytes2",
							"name": "",
							"type": "bytes2"
						}
					],
					"stateMutability": "view",
					"type": "function"
				}
			],
			"devdoc": {
				"kind": "dev",
				"methods": {},
				"version": 1
			},
			"evm": {
				"assembly": "    /* \"day1/ValueType.sol\":58:347  contract valueType{... */\n  mstore(0x40, 0x80)\n    /* \"day1/ValueType.sol\":98:100  10 */\n  0x0a\n    /* \"day1/ValueType.sol\":82:100  uint public a = 10 */\n  0x00\n  sstore\n    /* \"day1/ValueType.sol\":133:136  -20 */\n  0xffffffffffffffffffffffffffffffffffffffffffffffffffffffffffffffec\n    /* \"day1/ValueType.sol\":118:136  int public b = -20 */\n  0x01\n  sstore\n    /* \"day1/ValueType.sol\":166:200  string public c = \"Hello Solidity\" */\n  mload(0x40)\n  dup1\n  0x40\n  add\n  0x40\n  mstore\n  dup1\n  0x0e\n  dup2\n  mstore\n  0x20\n  add\n  0x48656c6c6f20536f6c6964697479000000000000000000000000000000000000\n  dup2\n  mstore\n  pop\n  0x02\n  swap1\n  dup2\n  tag_1\n  swap2\n  swap1\n  tag_2\n  jump\t// in\ntag_1:\n  pop\n    /* \"day1/ValueType.sol\":222:226  true */\n  0x01\n    /* \"day1/ValueType.sol\":206:226  bool public d = true */\n  0x03\n  exp(0x0100, 0x00)\n  dup2\n  sload\n  dup2\n  0xff\n  mul\n  not\n  and\n  swap1\n  dup4\n  iszero\n  iszero\n  mul\n  or\n  swap1\n  sstore\n  pop\n    /* \"day1/ValueType.sol\":251:293  0x5B38Da6a701c568545dCfcB03FcB875f56beddC4 */\n  0x5b38da6a701c568545dcfcb03fcb875f56beddc4\n    /* \"day1/ValueType.sol\":232:293  address public e = 0x5B38Da6a701c568545dCfcB03FcB875f56beddC4 */\n  0x03\n  exp(0x0100, 0x01)\n  dup2\n  sload\n  dup2\n  0xffffffffffffffffffffffffffffffffffffffff\n  mul\n  not\n  and\n  swap1\n  dup4\n  0xffffffffffffffffffffffffffffffffffffffff\n  and\n  mul\n  or\n  swap1\n  sstore\n  pop\n    /* \"day1/ValueType.sol\":322:344  bytes2 public f = \"01\" */\n  0x3031000000000000000000000000000000000000000000000000000000000000\n  0x03\n  exp(0x0100, 0x15)\n  dup2\n  sload\n  dup2\n  0xffff\n  mul\n  not\n  and\n  swap1\n  dup4\n  0xf0\n  shr\n  mul\n  or\n  swap1\n  sstore\n  pop\n    /* \"day1/ValueType.sol\":58:347  contract valueType{... */\n  callvalue\n  dup1\n  iszero\n  tag_3\n  jumpi\n  0x00\n  dup1\n  revert\ntag_3:\n  pop\n  jump(tag_4)\n    /* \"#utility.yul\":7:106   */\ntag_5:\n    /* \"#utility.yul\":59:65   */\n  0x00\n    /* \"#utility.yul\":93:98   */\n  dup2\n    /* \"#utility.yul\":87:99   */\n  mload\n    /* \"#utility.yul\":77:99   */\n  swap1\n  pop\n    /* \"#utility.yul\":7:106   */\n  swap2\n  swap1\n  pop\n  jump\t// out\n    /* \"#utility.yul\":112:292   */\ntag_6:\n    /* \"#utility.yul\":160:237   */\n  0x4e487b7100000000000000000000000000000000000000000000000000000000\n    /* \"#utility.yul\":157:158   */\n  0x00\n    /* \"#utility.yul\":150:238   */\n  mstore\n    /* \"#utility.yul\":257:261   */\n  0x41\n    /* \"#utility.yul\":254:255   */\n  0x04\n    /* \"#utility.yul\":247:262   */\n  mstore\n    /* \"#utility.yul\":281:285   */\n  0x24\n    /* \"#utility.yul\":278:279   */\n  0x00\n    /* \"#utility.yul\":271:286   */\n  revert\n    /* \"#utility.yul\":298:478   */\ntag_7:\n    /* \"#utility.yul\":346:423   */\n  0x4e487b7100000000000000000000000000000000000000000000000000000000\n    /* \"#utility.yul\":343:344   */\n  0x00\n    /* \"#utility.yul\":336:424   */\n  mstore\n    /* \"#utility.yul\":443:447   */\n  0x22\n    /* \"#utility.yul\":440:441   */\n  0x04\n    /* \"#utility.yul\":433:448   */\n  mstore\n    /* \"#utility.yul\":467:471   */\n  0x24\n    /* \"#utility.yul\":464:465   */\n  0x00\n    /* \"#utility.yul\":457:472   */\n  revert\n    /* \"#utility.yul\":484:804   */\ntag_8:\n    /* \"#utility.yul\":528:534   */\n  0x00\n    /* \"#utility.yul\":565:566   */\n  0x02\n    /* \"#utility.yul\":559:563   */\n  dup3\n    /* \"#utility.yul\":555:567   */\n  div\n    /* \"#utility.yul\":545:567   */\n  swap1\n  pop\n    /* \"#utility.yul\":612:613   */\n  0x01\n    /* \"#utility.yul\":606:610   */\n  dup3\n    /* \"#utility.yul\":602:614   */\n  and\n    /* \"#utility.yul\":633:651   */\n  dup1\n    /* \"#utility.yul\":623:704   */\n  tag_30\n  jumpi\n    /* \"#utility.yul\":689:693   */\n  0x7f\n    /* \"#utility.yul\":681:687   */\n  dup3\n    /* \"#utility.yul\":677:694   */\n  and\n    /* \"#utility.yul\":667:694   */\n  swap2\n  pop\n    /* \"#utility.yul\":623:704   */\ntag_30:\n    /* \"#utility.yul\":751:753   */\n  0x20\n    /* \"#utility.yul\":743:749   */\n  dup3\n    /* \"#utility.yul\":740:754   */\n  lt\n    /* \"#utility.yul\":720:738   */\n  dup2\n    /* \"#utility.yul\":717:755   */\n  sub\n    /* \"#utility.yul\":714:798   */\n  tag_31\n  jumpi\n    /* \"#utility.yul\":770:788   */\n  tag_32\n  tag_7\n  jump\t// in\ntag_32:\n    /* \"#utility.yul\":714:798   */\ntag_31:\n    /* \"#utility.yul\":535:804   */\n  pop\n    /* \"#utility.yul\":484:804   */\n  swap2\n  swap1\n  pop\n  jump\t// out\n    /* \"#utility.yul\":810:951   */\ntag_9:\n    /* \"#utility.yul\":859:863   */\n  0x00\n    /* \"#utility.yul\":882:885   */\n  dup2\n    /* \"#utility.yul\":874:885   */\n  swap1\n  pop\n    /* \"#utility.yul\":905:908   */\n  dup2\n    /* \"#utility.yul\":902:903   */\n  0x00\n    /* \"#utility.yul\":895:909   */\n  mstore\n    /* \"#utility.yul\":939:943   */\n  0x20\n    /* \"#utility.yul\":936:937   */\n  0x00\n    /* \"#utility.yul\":926:944   */\n  keccak256\n    /* \"#utility.yul\":918:944   */\n  swap1\n  pop\n    /* \"#utility.yul\":810:951   */\n  swap2\n  swap1\n  pop\n  jump\t// out\n    /* \"#utility.yul\":957:1050   */\ntag_10:\n    /* \"#utility.yul\":994:1000   */\n  0x00\n    /* \"#utility.yul\":1041:1043   */\n  0x20\n    /* \"#utility.yul\":1036:1038   */\n  0x1f\n    /* \"#utility.yul\":1029:1034   */\n  dup4\n    /* \"#utility.yul\":1025:1039   */\n  add\n    /* \"#utility.yul\":1021:1044   */\n  div\n    /* \"#utility.yul\":1011:1044   */\n  swap1\n  pop\n    /* \"#utility.yul\":957:1050   */\n  swap2\n  swap1\n  pop\n  jump\t// out\n    /* \"#utility.yul\":1056:1163   */\ntag_11:\n    /* \"#utility.yul\":1100:1108   */\n  0x00\n    /* \"#utility.yul\":1150:1155   */\n  dup3\n    /* \"#utility.yul\":1144:1148   */\n  dup3\n    /* \"#utility.yul\":1140:1156   */\n  shl\n    /* \"#utility.yul\":1119:1156   */\n  swap1\n  pop\n    /* \"#utility.yul\":1056:1163   */\n  swap3\n  swap2\n  pop\n  pop\n  jump\t// out\n    /* \"#utility.yul\":1169:1562   */\ntag_12:\n    /* \"#utility.yul\":1238:1244   */\n  0x00\n    /* \"#utility.yul\":1288:1289   */\n  0x08\n    /* \"#utility.yul\":1276:1286   */\n  dup4\n    /* \"#utility.yul\":1272:1290   */\n  mul\n    /* \"#utility.yul\":1311:1408   */\n  tag_37\n    /* \"#utility.yul\":1341:1407   */\n  0xffffffffffffffffffffffffffffffffffffffffffffffffffffffffffffffff\n    /* \"#utility.yul\":1330:1339   */\n  dup3\n    /* \"#utility.yul\":1311:1408   */\n  tag_11\n  jump\t// in\ntag_37:\n    /* \"#utility.yul\":1429:1468   */\n  tag_38\n    /* \"#utility.yul\":1459:1467   */\n  dup7\n    /* \"#utility.yul\":1448:1457   */\n  dup4\n    /* \"#utility.yul\":1429:1468   */\n  tag_11\n  jump\t// in\ntag_38:\n    /* \"#utility.yul\":1417:1468   */\n  swap6\n  pop\n    /* \"#utility.yul\":1501:1505   */\n  dup1\n    /* \"#utility.yul\":1497:1506   */\n  not\n    /* \"#utility.yul\":1490:1495   */\n  dup5\n    /* \"#utility.yul\":1486:1507   */\n  and\n    /* \"#utility.yul\":1477:1507   */\n  swap4\n  pop\n    /* \"#utility.yul\":1550:1554   */\n  dup1\n    /* \"#utility.yul\":1540:1548   */\n  dup7\n    /* \"#utility.yul\":1536:1555   */\n  and\n    /* \"#utility.yul\":1529:1534   */\n  dup5\n    /* \"#utility.yul\":1526:1556   */\n  or\n    /* \"#utility.yul\":1516:1556   */\n  swap3\n  pop\n    /* \"#utility.yul\":1245:1562   */\n  pop\n  pop\n    /* \"#utility.yul\":1169:1562   */\n  swap4\n  swap3\n  pop\n  pop\n  pop\n  jump\t// out\n    /* \"#utility.yul\":1568:1645   */\ntag_13:\n    /* \"#utility.yul\":1605:1612   */\n  0x00\n    /* \"#utility.yul\":1634:1639   */\n  dup2\n    /* \"#utility.yul\":1623:1639   */\n  swap1\n  pop\n    /* \"#utility.yul\":1568:1645   */\n  swap2\n  swap1\n  pop\n  jump\t// out\n    /* \"#utility.yul\":1651:1711   */\ntag_14:\n    /* \"#utility.yul\":1679:1682   */\n  0x00\n    /* \"#utility.yul\":1700:1705   */\n  dup2\n    /* \"#utility.yul\":1693:1705   */\n  swap1\n  pop\n    /* \"#utility.yul\":1651:1711   */\n  swap2\n  swap1\n  pop\n  jump\t// out\n    /* \"#utility.yul\":1717:1859   */\ntag_15:\n    /* \"#utility.yul\":1767:1776   */\n  0x00\n    /* \"#utility.yul\":1800:1853   */\n  tag_42\n    /* \"#utility.yul\":1818:1852   */\n  tag_43\n    /* \"#utility.yul\":1827:1851   */\n  tag_44\n    /* \"#utility.yul\":1845:1850   */\n  dup5\n    /* \"#utility.yul\":1827:1851   */\n  tag_13\n  jump\t// in\ntag_44:\n    /* \"#utility.yul\":1818:1852   */\n  tag_14\n  jump\t// in\ntag_43:\n    /* \"#utility.yul\":1800:1853   */\n  tag_13\n  jump\t// in\ntag_42:\n    /* \"#utility.yul\":1787:1853   */\n  swap1\n  pop\n    /* \"#utility.yul\":1717:1859   */\n  swap2\n  swap1\n  pop\n  jump\t// out\n    /* \"#utility.yul\":1865:1940   */\ntag_16:\n    /* \"#utility.yul\":1908:1911   */\n  0x00\n    /* \"#utility.yul\":1929:1934   */\n  dup2\n    /* \"#utility.yul\":1922:1934   */\n  swap1\n  pop\n    /* \"#utility.yul\":1865:1940   */\n  swap2\n  swap1\n  pop\n  jump\t// out\n    /* \"#utility.yul\":1946:2215   */\ntag_17:\n    /* \"#utility.yul\":2056:2095   */\n  tag_47\n    /* \"#utility.yul\":2087:2094   */\n  dup4\n    /* \"#utility.yul\":2056:2095   */\n  tag_15\n  jump\t// in\ntag_47:\n    /* \"#utility.yul\":2117:2208   */\n  tag_48\n    /* \"#utility.yul\":2166:2207   */\n  tag_49\n    /* \"#utility.yul\":2190:2206   */\n  dup3\n    /* \"#utility.yul\":2166:2207   */\n  tag_16\n  jump\t// in\ntag_49:\n    /* \"#utility.yul\":2158:2164   */\n  dup5\n    /* \"#utility.yul\":2151:2155   */\n  dup5\n    /* \"#utility.yul\":2145:2156   */\n  sload\n    /* \"#utility.yul\":2117:2208   */\n  tag_12\n  jump\t// in\ntag_48:\n    /* \"#utility.yul\":2111:2115   */\n  dup3\n    /* \"#utility.yul\":2104:2209   */\n  sstore\n    /* \"#utility.yul\":2022:2215   */\n  pop\n    /* \"#utility.yul\":1946:2215   */\n  pop\n  pop\n  pop\n  jump\t// out\n    /* \"#utility.yul\":2221:2294   */\ntag_18:\n    /* \"#utility.yul\":2266:2269   */\n  0x00\n    /* \"#utility.yul\":2221:2294   */\n  swap1\n  jump\t// out\n    /* \"#utility.yul\":2300:2489   */\ntag_19:\n    /* \"#utility.yul\":2377:2409   */\n  tag_52\n  tag_18\n  jump\t// in\ntag_52:\n    /* \"#utility.yul\":2418:2483   */\n  tag_53\n    /* \"#utility.yul\":2476:2482   */\n  dup2\n    /* \"#utility.yul\":2468:2474   */\n  dup5\n    /* \"#utility.yul\":2462:2466   */\n  dup5\n    /* \"#utility.yul\":2418:2483   */\n  tag_17\n  jump\t// in\ntag_53:\n    /* \"#utility.yul\":2353:2489   */\n  pop\n    /* \"#utility.yul\":2300:2489   */\n  pop\n  pop\n  jump\t// out\n    /* \"#utility.yul\":2495:2681   */\ntag_20:\n    /* \"#utility.yul\":2555:2675   */\ntag_55:\n    /* \"#utility.yul\":2572:2575   */\n  dup2\n    /* \"#utility.yul\":2565:2570   */\n  dup2\n    /* \"#utility.yul\":2562:2576   */\n  lt\n    /* \"#utility.yul\":2555:2675   */\n  iszero\n  tag_57\n  jumpi\n    /* \"#utility.yul\":2626:2665   */\n  tag_58\n    /* \"#utility.yul\":2663:2664   */\n  0x00\n    /* \"#utility.yul\":2656:2661   */\n  dup3\n    /* \"#utility.yul\":2626:2665   */\n  tag_19\n  jump\t// in\ntag_58:\n    /* \"#utility.yul\":2599:2600   */\n  0x01\n    /* \"#utility.yul\":2592:2597   */\n  dup2\n    /* \"#utility.yul\":2588:2601   */\n  add\n    /* \"#utility.yul\":2579:2601   */\n  swap1\n  pop\n    /* \"#utility.yul\":2555:2675   */\n  jump(tag_55)\ntag_57:\n    /* \"#utility.yul\":2495:2681   */\n  pop\n  pop\n  jump\t// out\n    /* \"#utility.yul\":2687:3230   */\ntag_21:\n    /* \"#utility.yul\":2788:2790   */\n  0x1f\n    /* \"#utility.yul\":2783:2786   */\n  dup3\n    /* \"#utility.yul\":2780:2791   */\n  gt\n    /* \"#utility.yul\":2777:3223   */\n  iszero\n  tag_60\n  jumpi\n    /* \"#utility.yul\":2822:2860   */\n  tag_61\n    /* \"#utility.yul\":2854:2859   */\n  dup2\n    /* \"#utility.yul\":2822:2860   */\n  tag_9\n  jump\t// in\ntag_61:\n    /* \"#utility.yul\":2906:2935   */\n  tag_62\n    /* \"#utility.yul\":2924:2934   */\n  dup5\n    /* \"#utility.yul\":2906:2935   */\n  tag_10\n  jump\t// in\ntag_62:\n    /* \"#utility.yul\":2896:2904   */\n  dup2\n    /* \"#utility.yul\":2892:2936   */\n  add\n    /* \"#utility.yul\":3089:3091   */\n  0x20\n    /* \"#utility.yul\":3077:3087   */\n  dup6\n    /* \"#utility.yul\":3074:3092   */\n  lt\n    /* \"#utility.yul\":3071:3120   */\n  iszero\n  tag_63\n  jumpi\n    /* \"#utility.yul\":3110:3118   */\n  dup2\n    /* \"#utility.yul\":3095:3118   */\n  swap1\n  pop\n    /* \"#utility.yul\":3071:3120   */\ntag_63:\n    /* \"#utility.yul\":3133:3213   */\n  tag_64\n    /* \"#utility.yul\":3189:3211   */\n  tag_65\n    /* \"#utility.yul\":3207:3210   */\n  dup6\n    /* \"#utility.yul\":3189:3211   */\n  tag_10\n  jump\t// in\ntag_65:\n    /* \"#utility.yul\":3179:3187   */\n  dup4\n    /* \"#utility.yul\":3175:3212   */\n  add\n    /* \"#utility.yul\":3162:3173   */\n  dup3\n    /* \"#utility.yul\":3133:3213   */\n  tag_20\n  jump\t// in\ntag_64:\n    /* \"#utility.yul\":2792:3223   */\n  pop\n  pop\n    /* \"#utility.yul\":2777:3223   */\ntag_60:\n    /* \"#utility.yul\":2687:3230   */\n  pop\n  pop\n  pop\n  jump\t// out\n    /* \"#utility.yul\":3236:3353   */\ntag_22:\n    /* \"#utility.yul\":3290:3298   */\n  0x00\n    /* \"#utility.yul\":3340:3345   */\n  dup3\n    /* \"#utility.yul\":3334:3338   */\n  dup3\n    /* \"#utility.yul\":3330:3346   */\n  shr\n    /* \"#utility.yul\":3309:3346   */\n  swap1\n  pop\n    /* \"#utility.yul\":3236:3353   */\n  swap3\n  swap2\n  pop\n  pop\n  jump\t// out\n    /* \"#utility.yul\":3359:3528   */\ntag_23:\n    /* \"#utility.yul\":3403:3409   */\n  0x00\n    /* \"#utility.yul\":3436:3487   */\n  tag_68\n    /* \"#utility.yul\":3484:3485   */\n  0x00\n    /* \"#utility.yul\":3480:3486   */\n  not\n    /* \"#utility.yul\":3472:3477   */\n  dup5\n    /* \"#utility.yul\":3469:3470   */\n  0x08\n    /* \"#utility.yul\":3465:3478   */\n  mul\n    /* \"#utility.yul\":3436:3487   */\n  tag_22\n  jump\t// in\ntag_68:\n    /* \"#utility.yul\":3432:3488   */\n  not\n    /* \"#utility.yul\":3517:3521   */\n  dup1\n    /* \"#utility.yul\":3511:3515   */\n  dup4\n    /* \"#utility.yul\":3507:3522   */\n  and\n    /* \"#utility.yul\":3497:3522   */\n  swap2\n  pop\n    /* \"#utility.yul\":3410:3528   */\n  pop\n    /* \"#utility.yul\":3359:3528   */\n  swap3\n  swap2\n  pop\n  pop\n  jump\t// out\n    /* \"#utility.yul\":3533:3828   */\ntag_24:\n    /* \"#utility.yul\":3609:3613   */\n  0x00\n    /* \"#utility.yul\":3755:3784   */\n  tag_70\n    /* \"#utility.yul\":3780:3783   */\n  dup4\n    /* \"#utility.yul\":3774:3778   */\n  dup4\n    /* \"#utility.yul\":3755:3784   */\n  tag_23\n  jump\t// in\ntag_70:\n    /* \"#utility.yul\":3747:3784   */\n  swap2\n  pop\n    /* \"#utility.yul\":3817:3820   */\n  dup3\n    /* \"#utility.yul\":3814:3815   */\n  0x02\n    /* \"#utility.yul\":3810:3821   */\n  mul\n    /* \"#utility.yul\":3804:3808   */\n  dup3\n    /* \"#utility.yul\":3801:3822   */\n  or\n    /* \"#utility.yul\":3793:3822   */\n  swap1\n  pop\n    /* \"#utility.yul\":3533:3828   */\n  swap3\n  swap2\n  pop\n  pop\n  jump\t// out\n    /* \"#utility.yul\":3833:5228   */\ntag_2:\n    /* \"#utility.yul\":3950:3987   */\n  tag_72\n    /* \"#utility.yul\":3983:3986   */\n  dup3\n    /* \"#utility.yul\":3950:3987   */\n  tag_5\n  jump\t// in\ntag_72:\n    /* \"#utility.yul\":4052:4070   */\n  0xffffffffffffffff\n    /* \"#utility.yul\":4044:4050   */\n  dup2\n    /* \"#utility.yul\":4041:4071   */\n  gt\n    /* \"#utility.yul\":4038:4094   */\n  iszero\n  tag_73\n  jumpi\n    /* \"#utility.yul\":4074:4092   */\n  tag_74\n  tag_6\n  jump\t// in\ntag_74:\n    /* \"#utility.yul\":4038:4094   */\ntag_73:\n    /* \"#utility.yul\":4118:4156   */\n  tag_75\n    /* \"#utility.yul\":4150:4154   */\n  dup3\n    /* \"#utility.yul\":4144:4155   */\n  sload\n    /* \"#utility.yul\":4118:4156   */\n  tag_8\n  jump\t// in\ntag_75:\n    /* \"#utility.yul\":4203:4270   */\n  tag_76\n    /* \"#utility.yul\":4263:4269   */\n  dup3\n    /* \"#utility.yul\":4255:4261   */\n  dup3\n    /* \"#utility.yul\":4249:4253   */\n  dup6\n    /* \"#utility.yul\":4203:4270   */\n  tag_21\n  jump\t// in\ntag_76:\n    /* \"#utility.yul\":4297:4298   */\n  0x00\n    /* \"#utility.yul\":4321:4325   */\n  0x20\n    /* \"#utility.yul\":4308:4325   */\n  swap1\n  pop\n    /* \"#utility.yul\":4353:4355   */\n  0x1f\n    /* \"#utility.yul\":4345:4351   */\n  dup4\n    /* \"#utility.yul\":4342:4356   */\n  gt\n    /* \"#utility.yul\":4370:4371   */\n  0x01\n    /* \"#utility.yul\":4365:4983   */\n  dup2\n  eq\n  tag_78\n  jumpi\n    /* \"#utility.yul\":5027:5028   */\n  0x00\n    /* \"#utility.yul\":5044:5050   */\n  dup5\n    /* \"#utility.yul\":5041:5118   */\n  iszero\n  tag_79\n  jumpi\n    /* \"#utility.yul\":5093:5102   */\n  dup3\n    /* \"#utility.yul\":5088:5091   */\n  dup8\n    /* \"#utility.yul\":5084:5103   */\n  add\n    /* \"#utility.yul\":5078:5104   */\n  mload\n    /* \"#utility.yul\":5069:5104   */\n  swap1\n  pop\n    /* \"#utility.yul\":5041:5118   */\ntag_79:\n    /* \"#utility.yul\":5144:5211   */\n  tag_80\n    /* \"#utility.yul\":5204:5210   */\n  dup6\n    /* \"#utility.yul\":5197:5202   */\n  dup3\n    /* \"#utility.yul\":5144:5211   */\n  tag_24\n  jump\t// in\ntag_80:\n    /* \"#utility.yul\":5138:5142   */\n  dup7\n    /* \"#utility.yul\":5131:5212   */\n  sstore\n    /* \"#utility.yul\":5000:5222   */\n  pop\n    /* \"#utility.yul\":4335:5222   */\n  jump(tag_77)\n    /* \"#utility.yul\":4365:4983   */\ntag_78:\n    /* \"#utility.yul\":4417:4421   */\n  0x1f\n    /* \"#utility.yul\":4413:4422   */\n  not\n    /* \"#utility.yul\":4405:4411   */\n  dup5\n    /* \"#utility.yul\":4401:4423   */\n  and\n    /* \"#utility.yul\":4451:4488   */\n  tag_81\n    /* \"#utility.yul\":4483:4487   */\n  dup7\n    /* \"#utility.yul\":4451:4488   */\n  tag_9\n  jump\t// in\ntag_81:\n    /* \"#utility.yul\":4510:4511   */\n  0x00\n    /* \"#utility.yul\":4524:4732   */\ntag_82:\n    /* \"#utility.yul\":4538:4545   */\n  dup3\n    /* \"#utility.yul\":4535:4536   */\n  dup2\n    /* \"#utility.yul\":4532:4546   */\n  lt\n    /* \"#utility.yul\":4524:4732   */\n  iszero\n  tag_84\n  jumpi\n    /* \"#utility.yul\":4617:4626   */\n  dup5\n    /* \"#utility.yul\":4612:4615   */\n  dup10\n    /* \"#utility.yul\":4608:4627   */\n  add\n    /* \"#utility.yul\":4602:4628   */\n  mload\n    /* \"#utility.yul\":4594:4600   */\n  dup3\n    /* \"#utility.yul\":4587:4629   */\n  sstore\n    /* \"#utility.yul\":4668:4669   */\n  0x01\n    /* \"#utility.yul\":4660:4666   */\n  dup3\n    /* \"#utility.yul\":4656:4670   */\n  add\n    /* \"#utility.yul\":4646:4670   */\n  swap2\n  pop\n    /* \"#utility.yul\":4715:4717   */\n  0x20\n    /* \"#utility.yul\":4704:4713   */\n  dup6\n    /* \"#utility.yul\":4700:4718   */\n  add\n    /* \"#utility.yul\":4687:4718   */\n  swap5\n  pop\n    /* \"#utility.yul\":4561:4565   */\n  0x20\n    /* \"#utility.yul\":4558:4559   */\n  dup2\n    /* \"#utility.yul\":4554:4566   */\n  add\n    /* \"#utility.yul\":4549:4566   */\n  swap1\n  pop\n    /* \"#utility.yul\":4524:4732   */\n  jump(tag_82)\ntag_84:\n    /* \"#utility.yul\":4760:4766   */\n  dup7\n    /* \"#utility.yul\":4751:4758   */\n  dup4\n    /* \"#utility.yul\":4748:4767   */\n  lt\n    /* \"#utility.yul\":4745:4924   */\n  iszero\n  tag_85\n  jumpi\n    /* \"#utility.yul\":4818:4827   */\n  dup5\n    /* \"#utility.yul\":4813:4816   */\n  dup10\n    /* \"#utility.yul\":4809:4828   */\n  add\n    /* \"#utility.yul\":4803:4829   */\n  mload\n    /* \"#utility.yul\":4861:4909   */\n  tag_86\n    /* \"#utility.yul\":4903:4907   */\n  0x1f\n    /* \"#utility.yul\":4895:4901   */\n  dup10\n    /* \"#utility.yul\":4891:4908   */\n  and\n    /* \"#utility.yul\":4880:4889   */\n  dup3\n    /* \"#utility.yul\":4861:4909   */\n  tag_23\n  jump\t// in\ntag_86:\n    /* \"#utility.yul\":4853:4859   */\n  dup4\n    /* \"#utility.yul\":4846:4910   */\n  sstore\n    /* \"#utility.yul\":4768:4924   */\n  pop\n    /* \"#utility.yul\":4745:4924   */\ntag_85:\n    /* \"#utility.yul\":4970:4971   */\n  0x01\n    /* \"#utility.yul\":4966:4967   */\n  0x02\n    /* \"#utility.yul\":4958:4964   */\n  dup9\n    /* \"#utility.yul\":4954:4968   */\n  mul\n    /* \"#utility.yul\":4950:4972   */\n  add\n    /* \"#utility.yul\":4944:4948   */\n  dup9\n    /* \"#utility.yul\":4937:4973   */\n  sstore\n    /* \"#utility.yul\":4372:4983   */\n  pop\n  pop\n  pop\n    /* \"#utility.yul\":4335:5222   */\ntag_77:\n  pop\n    /* \"#utility.yul\":3925:5228   */\n  pop\n  pop\n  pop\n    /* \"#utility.yul\":3833:5228   */\n  pop\n  pop\n  jump\t// out\n    /* \"day1/ValueType.sol\":58:347  contract valueType{... */\ntag_4:\n  dataSize(sub_0)\n  dup1\n  dataOffset(sub_0)\n  0x00\n  codecopy\n  0x00\n  return\nstop\n\nsub_0: assembly {\n        /* \"day1/ValueType.sol\":58:347  contract valueType{... */\n      mstore(0x40, 0x80)\n      callvalue\n      dup1\n      iszero\n      tag_1\n      jumpi\n      0x00\n      dup1\n      revert\n    tag_1:\n      pop\n      jumpi(tag_2, lt(calldatasize, 0x04))\n      shr(0xe0, calldataload(0x00))\n      dup1\n      0x0dbe671f\n      eq\n      tag_3\n      jumpi\n      dup1\n      0x26121ff0\n      eq\n      tag_4\n      jumpi\n      dup1\n      0x4df7e3d0\n      eq\n      tag_5\n      jumpi\n      dup1\n      0x8a054ac2\n      eq\n      tag_6\n      jumpi\n      dup1\n      0xc3da42b8\n      eq\n      tag_7\n      jumpi\n      dup1\n      0xffae15ba\n      eq\n      tag_8\n      jumpi\n    tag_2:\n      0x00\n      dup1\n      revert\n        /* \"day1/ValueType.sol\":82:100  uint public a = 10 */\n    tag_3:\n      tag_9\n      tag_10\n      jump\t// in\n    tag_9:\n      mload(0x40)\n      tag_11\n      swap2\n      swap1\n      tag_12\n      jump\t// in\n    tag_11:\n      mload(0x40)\n      dup1\n      swap2\n      sub\n      swap1\n      return\n        /* \"day1/ValueType.sol\":322:344  bytes2 public f = \"01\" */\n    tag_4:\n      tag_13\n      tag_14\n      jump\t// in\n    tag_13:\n      mload(0x40)\n      tag_15\n      swap2\n      swap1\n      tag_16\n      jump\t// in\n    tag_15:\n      mload(0x40)\n      dup1\n      swap2\n      sub\n      swap1\n      return\n        /* \"day1/ValueType.sol\":118:136  int public b = -20 */\n    tag_5:\n      tag_17\n      tag_18\n      jump\t// in\n    tag_17:\n      mload(0x40)\n      tag_19\n      swap2\n      swap1\n      tag_20\n      jump\t// in\n    tag_19:\n      mload(0x40)\n      dup1\n      swap2\n      sub\n      swap1\n      return\n        /* \"day1/ValueType.sol\":206:226  bool public d = true */\n    tag_6:\n      tag_21\n      tag_22\n      jump\t// in\n    tag_21:\n      mload(0x40)\n      tag_23\n      swap2\n      swap1\n      tag_24\n      jump\t// in\n    tag_23:\n      mload(0x40)\n      dup1\n      swap2\n      sub\n      swap1\n      return\n        /* \"day1/ValueType.sol\":166:200  string public c = \"Hello Solidity\" */\n    tag_7:\n      tag_25\n      tag_26\n      jump\t// in\n    tag_25:\n      mload(0x40)\n      tag_27\n      swap2\n      swap1\n      tag_28\n      jump\t// in\n    tag_27:\n      mload(0x40)\n      dup1\n      swap2\n      sub\n      swap1\n      return\n        /* \"day1/ValueType.sol\":232:293  address public e = 0x5B38Da6a701c568545dCfcB03FcB875f56beddC4 */\n    tag_8:\n      tag_29\n      tag_30\n      jump\t// in\n    tag_29:\n      mload(0x40)\n      tag_31\n      swap2\n      swap1\n      tag_32\n      jump\t// in\n    tag_31:\n      mload(0x40)\n      dup1\n      swap2\n      sub\n      swap1\n      return\n        /* \"day1/ValueType.sol\":82:100  uint public a = 10 */\n    tag_10:\n      sload(0x00)\n      dup2\n      jump\t// out\n        /* \"day1/ValueType.sol\":322:344  bytes2 public f = \"01\" */\n    tag_14:\n      0x03\n      0x15\n      swap1\n      sload\n      swap1\n      0x0100\n      exp\n      swap1\n      div\n      0xf0\n      shl\n      dup2\n      jump\t// out\n        /* \"day1/ValueType.sol\":118:136  int public b = -20 */\n    tag_18:\n      sload(0x01)\n      dup2\n      jump\t// out\n        /* \"day1/ValueType.sol\":206:226  bool public d = true */\n    tag_22:\n      0x03\n      0x00\n      swap1\n      sload\n      swap1\n      0x0100\n      exp\n      swap1\n      div\n      0xff\n      and\n      dup2\n      jump\t// out\n        /* \"day1/ValueType.sol\":166:200  string public c = \"Hello Solidity\" */\n    tag_26:\n      0x02\n      dup1\n      sload\n      tag_33\n      swap1\n      tag_34\n      jump\t// in\n    tag_33:\n      dup1\n      0x1f\n      add\n      0x20\n      dup1\n      swap2\n      div\n      mul\n      0x20\n      add\n      mload(0x40)\n      swap1\n      dup2\n      add\n      0x40\n      mstore\n      dup1\n      swap3\n      swap2\n      swap1\n      dup2\n      dup2\n      mstore\n      0x20\n      add\n      dup3\n      dup1\n      sload\n      tag_35\n      swap1\n      tag_34\n      jump\t// in\n    tag_35:\n      dup1\n      iszero\n      tag_36\n      jumpi\n      dup1\n      0x1f\n      lt\n      tag_37\n      jumpi\n      0x0100\n      dup1\n      dup4\n      sload\n      div\n      mul\n      dup4\n      mstore\n      swap2\n      0x20\n      add\n      swap2\n      jump(tag_36)\n    tag_37:\n      dup3\n      add\n      swap2\n      swap1\n      0x00\n      mstore\n      keccak256(0x00, 0x20)\n      swap1\n    tag_38:\n      dup2\n      sload\n      dup2\n      mstore\n      swap1\n      0x01\n      add\n      swap1\n      0x20\n      add\n      dup1\n      dup4\n      gt\n      tag_38\n      jumpi\n      dup3\n      swap1\n      sub\n      0x1f\n      and\n      dup3\n      add\n      swap2\n    tag_36:\n      pop\n      pop\n      pop\n      pop\n      pop\n      dup2\n      jump\t// out\n        /* \"day1/ValueType.sol\":232:293  address public e = 0x5B38Da6a701c568545dCfcB03FcB875f56beddC4 */\n    tag_30:\n      0x03\n      0x01\n      swap1\n      sload\n      swap1\n      0x0100\n      exp\n      swap1\n      div\n      0xffffffffffffffffffffffffffffffffffffffff\n      and\n      dup2\n      jump\t// out\n        /* \"#utility.yul\":7:84   */\n    tag_39:\n        /* \"#utility.yul\":44:51   */\n      0x00\n        /* \"#utility.yul\":73:78   */\n      dup2\n        /* \"#utility.yul\":62:78   */\n      swap1\n      pop\n        /* \"#utility.yul\":7:84   */\n      swap2\n      swap1\n      pop\n      jump\t// out\n        /* \"#utility.yul\":90:208   */\n    tag_40:\n        /* \"#utility.yul\":177:201   */\n      tag_59\n        /* \"#utility.yul\":195:200   */\n      dup2\n        /* \"#utility.yul\":177:201   */\n      tag_39\n      jump\t// in\n    tag_59:\n        /* \"#utility.yul\":172:175   */\n      dup3\n        /* \"#utility.yul\":165:202   */\n      mstore\n        /* \"#utility.yul\":90:208   */\n      pop\n      pop\n      jump\t// out\n        /* \"#utility.yul\":214:436   */\n    tag_12:\n        /* \"#utility.yul\":307:311   */\n      0x00\n        /* \"#utility.yul\":345:347   */\n      0x20\n        /* \"#utility.yul\":334:343   */\n      dup3\n        /* \"#utility.yul\":330:348   */\n      add\n        /* \"#utility.yul\":322:348   */\n      swap1\n      pop\n        /* \"#utility.yul\":358:429   */\n      tag_61\n        /* \"#utility.yul\":426:427   */\n      0x00\n        /* \"#utility.yul\":415:424   */\n      dup4\n        /* \"#utility.yul\":411:428   */\n      add\n        /* \"#utility.yul\":402:408   */\n      dup5\n        /* \"#utility.yul\":358:429   */\n      tag_40\n      jump\t// in\n    tag_61:\n        /* \"#utility.yul\":214:436   */\n      swap3\n      swap2\n      pop\n      pop\n      jump\t// out\n        /* \"#utility.yul\":442:591   */\n    tag_41:\n        /* \"#utility.yul\":478:485   */\n      0x00\n        /* \"#utility.yul\":518:584   */\n      0xffff000000000000000000000000000000000000000000000000000000000000\n        /* \"#utility.yul\":511:516   */\n      dup3\n        /* \"#utility.yul\":507:585   */\n      and\n        /* \"#utility.yul\":496:585   */\n      swap1\n      pop\n        /* \"#utility.yul\":442:591   */\n      swap2\n      swap1\n      pop\n      jump\t// out\n        /* \"#utility.yul\":597:712   */\n    tag_42:\n        /* \"#utility.yul\":682:705   */\n      tag_64\n        /* \"#utility.yul\":699:704   */\n      dup2\n        /* \"#utility.yul\":682:705   */\n      tag_41\n      jump\t// in\n    tag_64:\n        /* \"#utility.yul\":677:680   */\n      dup3\n        /* \"#utility.yul\":670:706   */\n      mstore\n        /* \"#utility.yul\":597:712   */\n      pop\n      pop\n      jump\t// out\n        /* \"#utility.yul\":718:936   */\n    tag_16:\n        /* \"#utility.yul\":809:813   */\n      0x00\n        /* \"#utility.yul\":847:849   */\n      0x20\n        /* \"#utility.yul\":836:845   */\n      dup3\n        /* \"#utility.yul\":832:850   */\n      add\n        /* \"#utility.yul\":824:850   */\n      swap1\n      pop\n        /* \"#utility.yul\":860:929   */\n      tag_66\n        /* \"#utility.yul\":926:927   */\n      0x00\n        /* \"#utility.yul\":915:924   */\n      dup4\n        /* \"#utility.yul\":911:928   */\n      add\n        /* \"#utility.yul\":902:908   */\n      dup5\n        /* \"#utility.yul\":860:929   */\n      tag_42\n      jump\t// in\n    tag_66:\n        /* \"#utility.yul\":718:936   */\n      swap3\n      swap2\n      pop\n      pop\n      jump\t// out\n        /* \"#utility.yul\":942:1018   */\n    tag_43:\n        /* \"#utility.yul\":978:985   */\n      0x00\n        /* \"#utility.yul\":1007:1012   */\n      dup2\n        /* \"#utility.yul\":996:1012   */\n      swap1\n      pop\n        /* \"#utility.yul\":942:1018   */\n      swap2\n      swap1\n      pop\n      jump\t// out\n        /* \"#utility.yul\":1024:1139   */\n    tag_44:\n        /* \"#utility.yul\":1109:1132   */\n      tag_69\n        /* \"#utility.yul\":1126:1131   */\n      dup2\n        /* \"#utility.yul\":1109:1132   */\n      tag_43\n      jump\t// in\n    tag_69:\n        /* \"#utility.yul\":1104:1107   */\n      dup3\n        /* \"#utility.yul\":1097:1133   */\n      mstore\n        /* \"#utility.yul\":1024:1139   */\n      pop\n      pop\n      jump\t// out\n        /* \"#utility.yul\":1145:1363   */\n    tag_20:\n        /* \"#utility.yul\":1236:1240   */\n      0x00\n        /* \"#utility.yul\":1274:1276   */\n      0x20\n        /* \"#utility.yul\":1263:1272   */\n      dup3\n        /* \"#utility.yul\":1259:1277   */\n      add\n        /* \"#utility.yul\":1251:1277   */\n      swap1\n      pop\n        /* \"#utility.yul\":1287:1356   */\n      tag_71\n        /* \"#utility.yul\":1353:1354   */\n      0x00\n        /* \"#utility.yul\":1342:1351   */\n      dup4\n        /* \"#utility.yul\":1338:1355   */\n      add\n        /* \"#utility.yul\":1329:1335   */\n      dup5\n        /* \"#utility.yul\":1287:1356   */\n      tag_44\n      jump\t// in\n    tag_71:\n        /* \"#utility.yul\":1145:1363   */\n      swap3\n      swap2\n      pop\n      pop\n      jump\t// out\n        /* \"#utility.yul\":1369:1459   */\n    tag_45:\n        /* \"#utility.yul\":1403:1410   */\n      0x00\n        /* \"#utility.yul\":1446:1451   */\n      dup2\n        /* \"#utility.yul\":1439:1452   */\n      iszero\n        /* \"#utility.yul\":1432:1453   */\n      iszero\n        /* \"#utility.yul\":1421:1453   */\n      swap1\n      pop\n        /* \"#utility.yul\":1369:1459   */\n      swap2\n      swap1\n      pop\n      jump\t// out\n        /* \"#utility.yul\":1465:1574   */\n    tag_46:\n        /* \"#utility.yul\":1546:1567   */\n      tag_74\n        /* \"#utility.yul\":1561:1566   */\n      dup2\n        /* \"#utility.yul\":1546:1567   */\n      tag_45\n      jump\t// in\n    tag_74:\n        /* \"#utility.yul\":1541:1544   */\n      dup3\n        /* \"#utility.yul\":1534:1568   */\n      mstore\n        /* \"#utility.yul\":1465:1574   */\n      pop\n      pop\n      jump\t// out\n        /* \"#utility.yul\":1580:1790   */\n    tag_24:\n        /* \"#utility.yul\":1667:1671   */\n      0x00\n        /* \"#utility.yul\":1705:1707   */\n      0x20\n        /* \"#utility.yul\":1694:1703   */\n      dup3\n        /* \"#utility.yul\":1690:1708   */\n      add\n        /* \"#utility.yul\":1682:1708   */\n      swap1\n      pop\n        /* \"#utility.yul\":1718:1783   */\n      tag_76\n        /* \"#utility.yul\":1780:1781   */\n      0x00\n        /* \"#utility.yul\":1769:1778   */\n      dup4\n        /* \"#utility.yul\":1765:1782   */\n      add\n        /* \"#utility.yul\":1756:1762   */\n      dup5\n        /* \"#utility.yul\":1718:1783   */\n      tag_46\n      jump\t// in\n    tag_76:\n        /* \"#utility.yul\":1580:1790   */\n      swap3\n      swap2\n      pop\n      pop\n      jump\t// out\n        /* \"#utility.yul\":1796:1895   */\n    tag_47:\n        /* \"#utility.yul\":1848:1854   */\n      0x00\n        /* \"#utility.yul\":1882:1887   */\n      dup2\n        /* \"#utility.yul\":1876:1888   */\n      mload\n        /* \"#utility.yul\":1866:1888   */\n      swap1\n      pop\n        /* \"#utility.yul\":1796:1895   */\n      swap2\n      swap1\n      pop\n      jump\t// out\n        /* \"#utility.yul\":1901:2070   */\n    tag_48:\n        /* \"#utility.yul\":1985:1996   */\n      0x00\n        /* \"#utility.yul\":2019:2025   */\n      dup3\n        /* \"#utility.yul\":2014:2017   */\n      dup3\n        /* \"#utility.yul\":2007:2026   */\n      mstore\n        /* \"#utility.yul\":2059:2063   */\n      0x20\n        /* \"#utility.yul\":2054:2057   */\n      dup3\n        /* \"#utility.yul\":2050:2064   */\n      add\n        /* \"#utility.yul\":2035:2064   */\n      swap1\n      pop\n        /* \"#utility.yul\":1901:2070   */\n      swap3\n      swap2\n      pop\n      pop\n      jump\t// out\n        /* \"#utility.yul\":2076:2322   */\n    tag_49:\n        /* \"#utility.yul\":2157:2158   */\n      0x00\n        /* \"#utility.yul\":2167:2280   */\n    tag_80:\n        /* \"#utility.yul\":2181:2187   */\n      dup4\n        /* \"#utility.yul\":2178:2179   */\n      dup2\n        /* \"#utility.yul\":2175:2188   */\n      lt\n        /* \"#utility.yul\":2167:2280   */\n      iszero\n      tag_82\n      jumpi\n        /* \"#utility.yul\":2266:2267   */\n      dup1\n        /* \"#utility.yul\":2261:2264   */\n      dup3\n        /* \"#utility.yul\":2257:2268   */\n      add\n        /* \"#utility.yul\":2251:2269   */\n      mload\n        /* \"#utility.yul\":2247:2248   */\n      dup2\n        /* \"#utility.yul\":2242:2245   */\n      dup5\n        /* \"#utility.yul\":2238:2249   */\n      add\n        /* \"#utility.yul\":2231:2270   */\n      mstore\n        /* \"#utility.yul\":2203:2205   */\n      0x20\n        /* \"#utility.yul\":2200:2201   */\n      dup2\n        /* \"#utility.yul\":2196:2206   */\n      add\n        /* \"#utility.yul\":2191:2206   */\n      swap1\n      pop\n        /* \"#utility.yul\":2167:2280   */\n      jump(tag_80)\n    tag_82:\n        /* \"#utility.yul\":2314:2315   */\n      0x00\n        /* \"#utility.yul\":2305:2311   */\n      dup5\n        /* \"#utility.yul\":2300:2303   */\n      dup5\n        /* \"#utility.yul\":2296:2312   */\n      add\n        /* \"#utility.yul\":2289:2316   */\n      mstore\n        /* \"#utility.yul\":2138:2322   */\n      pop\n        /* \"#utility.yul\":2076:2322   */\n      pop\n      pop\n      pop\n      jump\t// out\n        /* \"#utility.yul\":2328:2430   */\n    tag_50:\n        /* \"#utility.yul\":2369:2375   */\n      0x00\n        /* \"#utility.yul\":2420:2422   */\n      0x1f\n        /* \"#utility.yul\":2416:2423   */\n      not\n        /* \"#utility.yul\":2411:2413   */\n      0x1f\n        /* \"#utility.yul\":2404:2409   */\n      dup4\n        /* \"#utility.yul\":2400:2414   */\n      add\n        /* \"#utility.yul\":2396:2424   */\n      and\n        /* \"#utility.yul\":2386:2424   */\n      swap1\n      pop\n        /* \"#utility.yul\":2328:2430   */\n      swap2\n      swap1\n      pop\n      jump\t// out\n        /* \"#utility.yul\":2436:2813   */\n    tag_51:\n        /* \"#utility.yul\":2524:2527   */\n      0x00\n        /* \"#utility.yul\":2552:2591   */\n      tag_85\n        /* \"#utility.yul\":2585:2590   */\n      dup3\n        /* \"#utility.yul\":2552:2591   */\n      tag_47\n      jump\t// in\n    tag_85:\n        /* \"#utility.yul\":2607:2678   */\n      tag_86\n        /* \"#utility.yul\":2671:2677   */\n      dup2\n        /* \"#utility.yul\":2666:2669   */\n      dup6\n        /* \"#utility.yul\":2607:2678   */\n      tag_48\n      jump\t// in\n    tag_86:\n        /* \"#utility.yul\":2600:2678   */\n      swap4\n      pop\n        /* \"#utility.yul\":2687:2752   */\n      tag_87\n        /* \"#utility.yul\":2745:2751   */\n      dup2\n        /* \"#utility.yul\":2740:2743   */\n      dup6\n        /* \"#utility.yul\":2733:2737   */\n      0x20\n        /* \"#utility.yul\":2726:2731   */\n      dup7\n        /* \"#utility.yul\":2722:2738   */\n      add\n        /* \"#utility.yul\":2687:2752   */\n      tag_49\n      jump\t// in\n    tag_87:\n        /* \"#utility.yul\":2777:2806   */\n      tag_88\n        /* \"#utility.yul\":2799:2805   */\n      dup2\n        /* \"#utility.yul\":2777:2806   */\n      tag_50\n      jump\t// in\n    tag_88:\n        /* \"#utility.yul\":2772:2775   */\n      dup5\n        /* \"#utility.yul\":2768:2807   */\n      add\n        /* \"#utility.yul\":2761:2807   */\n      swap2\n      pop\n        /* \"#utility.yul\":2528:2813   */\n      pop\n        /* \"#utility.yul\":2436:2813   */\n      swap3\n      swap2\n      pop\n      pop\n      jump\t// out\n        /* \"#utility.yul\":2819:3132   */\n    tag_28:\n        /* \"#utility.yul\":2932:2936   */\n      0x00\n        /* \"#utility.yul\":2970:2972   */\n      0x20\n        /* \"#utility.yul\":2959:2968   */\n      dup3\n        /* \"#utility.yul\":2955:2973   */\n      add\n        /* \"#utility.yul\":2947:2973   */\n      swap1\n      pop\n        /* \"#utility.yul\":3019:3028   */\n      dup2\n        /* \"#utility.yul\":3013:3017   */\n      dup2\n        /* \"#utility.yul\":3009:3029   */\n      sub\n        /* \"#utility.yul\":3005:3006   */\n      0x00\n        /* \"#utility.yul\":2994:3003   */\n      dup4\n        /* \"#utility.yul\":2990:3007   */\n      add\n        /* \"#utility.yul\":2983:3030   */\n      mstore\n        /* \"#utility.yul\":3047:3125   */\n      tag_90\n        /* \"#utility.yul\":3120:3124   */\n      dup2\n        /* \"#utility.yul\":3111:3117   */\n      dup5\n        /* \"#utility.yul\":3047:3125   */\n      tag_51\n      jump\t// in\n    tag_90:\n        /* \"#utility.yul\":3039:3125   */\n      swap1\n      pop\n        /* \"#utility.yul\":2819:3132   */\n      swap3\n      swap2\n      pop\n      pop\n      jump\t// out\n        /* \"#utility.yul\":3138:3264   */\n    tag_52:\n        /* \"#utility.yul\":3175:3182   */\n      0x00\n        /* \"#utility.yul\":3215:3257   */\n      0xffffffffffffffffffffffffffffffffffffffff\n        /* \"#utility.yul\":3208:3213   */\n      dup3\n        /* \"#utility.yul\":3204:3258   */\n      and\n        /* \"#utility.yul\":3193:3258   */\n      swap1\n      pop\n        /* \"#utility.yul\":3138:3264   */\n      swap2\n      swap1\n      pop\n      jump\t// out\n        /* \"#utility.yul\":3270:3366   */\n    tag_53:\n        /* \"#utility.yul\":3307:3314   */\n      0x00\n        /* \"#utility.yul\":3336:3360   */\n      tag_93\n        /* \"#utility.yul\":3354:3359   */\n      dup3\n        /* \"#utility.yul\":3336:3360   */\n      tag_52\n      jump\t// in\n    tag_93:\n        /* \"#utility.yul\":3325:3360   */\n      swap1\n      pop\n        /* \"#utility.yul\":3270:3366   */\n      swap2\n      swap1\n      pop\n      jump\t// out\n        /* \"#utility.yul\":3372:3490   */\n    tag_54:\n        /* \"#utility.yul\":3459:3483   */\n      tag_95\n        /* \"#utility.yul\":3477:3482   */\n      dup2\n        /* \"#utility.yul\":3459:3483   */\n      tag_53\n      jump\t// in\n    tag_95:\n        /* \"#utility.yul\":3454:3457   */\n      dup3\n        /* \"#utility.yul\":3447:3484   */\n      mstore\n        /* \"#utility.yul\":3372:3490   */\n      pop\n      pop\n      jump\t// out\n        /* \"#utility.yul\":3496:3718   */\n    tag_32:\n        /* \"#utility.yul\":3589:3593   */\n      0x00\n        /* \"#utility.yul\":3627:3629   */\n      0x20\n        /* \"#utility.yul\":3616:3625   */\n      dup3\n        /* \"#utility.yul\":3612:3630   */\n      add\n        /* \"#utility.yul\":3604:3630   */\n      swap1\n      pop\n        /* \"#utility.yul\":3640:3711   */\n      tag_97\n        /* \"#utility.yul\":3708:3709   */\n      0x00\n        /* \"#utility.yul\":3697:3706   */\n      dup4\n        /* \"#utility.yul\":3693:3710   */\n      add\n        /* \"#utility.yul\":3684:3690   */\n      dup5\n        /* \"#utility.yul\":3640:3711   */\n      tag_54\n      jump\t// in\n    tag_97:\n        /* \"#utility.yul\":3496:3718   */\n      swap3\n      swap2\n      pop\n      pop\n      jump\t// out\n        /* \"#utility.yul\":3724:3904   */\n    tag_55:\n        /* \"#utility.yul\":3772:3849   */\n      0x4e487b7100000000000000000000000000000000000000000000000000000000\n        /* \"#utility.yul\":3769:3770   */\n      0x00\n        /* \"#utility.yul\":3762:3850   */\n      mstore\n        /* \"#utility.yul\":3869:3873   */\n      0x22\n        /* \"#utility.yul\":3866:3867   */\n      0x04\n        /* \"#utility.yul\":3859:3874   */\n      mstore\n        /* \"#utility.yul\":3893:3897   */\n      0x24\n        /* \"#utility.yul\":3890:3891   */\n      0x00\n        /* \"#utility.yul\":3883:3898   */\n      revert\n        /* \"#utility.yul\":3910:4230   */\n    tag_34:\n        /* \"#utility.yul\":3954:3960   */\n      0x00\n        /* \"#utility.yul\":3991:3992   */\n      0x02\n        /* \"#utility.yul\":3985:3989   */\n      dup3\n        /* \"#utility.yul\":3981:3993   */\n      div\n        /* \"#utility.yul\":3971:3993   */\n      swap1\n      pop\n        /* \"#utility.yul\":4038:4039   */\n      0x01\n        /* \"#utility.yul\":4032:4036   */\n      dup3\n        /* \"#utility.yul\":4028:4040   */\n      and\n        /* \"#utility.yul\":4059:4077   */\n      dup1\n        /* \"#utility.yul\":4049:4130   */\n      tag_100\n      jumpi\n        /* \"#utility.yul\":4115:4119   */\n      0x7f\n        /* \"#utility.yul\":4107:4113   */\n      dup3\n        /* \"#utility.yul\":4103:4120   */\n      and\n        /* \"#utility.yul\":4093:4120   */\n      swap2\n      pop\n        /* \"#utility.yul\":4049:4130   */\n    tag_100:\n        /* \"#utility.yul\":4177:4179   */\n      0x20\n        /* \"#utility.yul\":4169:4175   */\n      dup3\n        /* \"#utility.yul\":4166:4180   */\n      lt\n        /* \"#utility.yul\":4146:4164   */\n      dup2\n        /* \"#utility.yul\":4143:4181   */\n      sub\n        /* \"#utility.yul\":4140:4224   */\n      tag_101\n      jumpi\n        /* \"#utility.yul\":4196:4214   */\n      tag_102\n      tag_55\n      jump\t// in\n    tag_102:\n        /* \"#utility.yul\":4140:4224   */\n    tag_101:\n        /* \"#utility.yul\":3961:4230   */\n      pop\n        /* \"#utility.yul\":3910:4230   */\n      swap2\n      swap1\n      pop\n      jump\t// out\n\n    auxdata: 0xa2646970667358221220af38fcbac769e67fd864eca3a108e68944445ec81d4a2eca8d4b23f27f85970264736f6c63430008130033\n}\n",
				"bytecode": {
					"linkReferences": {},
					"object": "6080604052600a6000557fffffffffffffffffffffffffffffffffffffffffffffffffffffffffffffffec6001556040518060400160405280600e81526020017f48656c6c6f20536f6c696469747900000000000000000000000000000000000081525060029081620000739190620003ae565b506001600360006101000a81548160ff021916908315150217905550735b38da6a701c568545dcfcb03fcb875f56beddc4600360016101000a81548173ffffffffffffffffffffffffffffffffffffffff021916908373ffffffffffffffffffffffffffffffffffffffff1602179055507f3031000000000000000000000000000000000000000000000000000000000000600360156101000a81548161ffff021916908360f01c02179055503480156200012d57600080fd5b5062000495565b600081519050919050565b7f4e487b7100000000000000000000000000000000000000000000000000000000600052604160045260246000fd5b7f4e487b7100000000000000000000000000000000000000000000000000000000600052602260045260246000fd5b60006002820490506001821680620001b657607f821691505b602082108103620001cc57620001cb6200016e565b5b50919050565b60008190508160005260206000209050919050565b60006020601f8301049050919050565b600082821b905092915050565b600060088302620002367fffffffffffffffffffffffffffffffffffffffffffffffffffffffffffffffff82620001f7565b620002428683620001f7565b95508019841693508086168417925050509392505050565b6000819050919050565b6000819050919050565b60006200028f6200028962000283846200025a565b62000264565b6200025a565b9050919050565b6000819050919050565b620002ab836200026e565b620002c3620002ba8262000296565b84845462000204565b825550505050565b600090565b620002da620002cb565b620002e7818484620002a0565b505050565b5b818110156200030f5762000303600082620002d0565b600181019050620002ed565b5050565b601f8211156200035e576200032881620001d2565b6200033384620001e7565b8101602085101562000343578190505b6200035b6200035285620001e7565b830182620002ec565b50505b505050565b600082821c905092915050565b6000620003836000198460080262000363565b1980831691505092915050565b60006200039e838362000370565b9150826002028217905092915050565b620003b98262000134565b67ffffffffffffffff811115620003d557620003d46200013f565b5b620003e182546200019d565b620003ee82828562000313565b600060209050601f83116001811462000426576000841562000411578287015190505b6200041d858262000390565b8655506200048d565b601f1984166200043686620001d2565b60005b82811015620004605784890151825560018201915060208501945060208101905062000439565b868310156200048057848901516200047c601f89168262000370565b8355505b6001600288020188555050505b505050505050565b61049980620004a56000396000f3fe608060405234801561001057600080fd5b50600436106100625760003560e01c80630dbe671f1461006757806326121ff0146100855780634df7e3d0146100a35780638a054ac2146100c1578063c3da42b8146100df578063ffae15ba146100fd575b600080fd5b61006f61011b565b60405161007c919061021a565b60405180910390f35b61008d610121565b60405161009a9190610270565b60405180910390f35b6100ab610134565b6040516100b891906102a4565b60405180910390f35b6100c961013a565b6040516100d691906102da565b60405180910390f35b6100e761014d565b6040516100f49190610385565b60405180910390f35b6101056101db565b60405161011291906103e8565b60405180910390f35b60005481565b600360159054906101000a900460f01b81565b60015481565b600360009054906101000a900460ff1681565b6002805461015a90610432565b80601f016020809104026020016040519081016040528092919081815260200182805461018690610432565b80156101d35780601f106101a8576101008083540402835291602001916101d3565b820191906000526020600020905b8154815290600101906020018083116101b657829003601f168201915b505050505081565b600360019054906101000a900473ffffffffffffffffffffffffffffffffffffffff1681565b6000819050919050565b61021481610201565b82525050565b600060208201905061022f600083018461020b565b92915050565b60007fffff00000000000000000000000000000000000000000000000000000000000082169050919050565b61026a81610235565b82525050565b60006020820190506102856000830184610261565b92915050565b6000819050919050565b61029e8161028b565b82525050565b60006020820190506102b96000830184610295565b92915050565b60008115159050919050565b6102d4816102bf565b82525050565b60006020820190506102ef60008301846102cb565b92915050565b600081519050919050565b600082825260208201905092915050565b60005b8381101561032f578082015181840152602081019050610314565b60008484015250505050565b6000601f19601f8301169050919050565b6000610357826102f5565b6103618185610300565b9350610371818560208601610311565b61037a8161033b565b840191505092915050565b6000602082019050818103600083015261039f818461034c565b905092915050565b600073ffffffffffffffffffffffffffffffffffffffff82169050919050565b60006103d2826103a7565b9050919050565b6103e2816103c7565b82525050565b60006020820190506103fd60008301846103d9565b92915050565b7f4e487b7100000000000000000000000000000000000000000000000000000000600052602260045260246000fd5b6000600282049050600182168061044a57607f821691505b60208210810361045d5761045c610403565b5b5091905056fea2646970667358221220af38fcbac769e67fd864eca3a108e68944445ec81d4a2eca8d4b23f27f85970264736f6c63430008130033",
					"opcodes": "PUSH1 0x80 PUSH1 0x40 MSTORE PUSH1 0xA PUSH1 0x0 SSTORE PUSH32 0xFFFFFFFFFFFFFFFFFFFFFFFFFFFFFFFFFFFFFFFFFFFFFFFFFFFFFFFFFFFFFFEC PUSH1 0x1 SSTORE PUSH1 0x40 MLOAD DUP1 PUSH1 0x40 ADD PUSH1 0x40 MSTORE DUP1 PUSH1 0xE DUP2 MSTORE PUSH1 0x20 ADD PUSH32 0x48656C6C6F20536F6C6964697479000000000000000000000000000000000000 DUP2 MSTORE POP PUSH1 0x2 SWAP1 DUP2 PUSH3 0x73 SWAP2 SWAP1 PUSH3 0x3AE JUMP JUMPDEST POP PUSH1 0x1 PUSH1 0x3 PUSH1 0x0 PUSH2 0x100 EXP DUP2 SLOAD DUP2 PUSH1 0xFF MUL NOT AND SWAP1 DUP4 ISZERO ISZERO MUL OR SWAP1 SSTORE POP PUSH20 0x5B38DA6A701C568545DCFCB03FCB875F56BEDDC4 PUSH1 0x3 PUSH1 0x1 PUSH2 0x100 EXP DUP2 SLOAD DUP2 PUSH20 0xFFFFFFFFFFFFFFFFFFFFFFFFFFFFFFFFFFFFFFFF MUL NOT AND SWAP1 DUP4 PUSH20 0xFFFFFFFFFFFFFFFFFFFFFFFFFFFFFFFFFFFFFFFF AND MUL OR SWAP1 SSTORE POP PUSH32 0x3031000000000000000000000000000000000000000000000000000000000000 PUSH1 0x3 PUSH1 0x15 PUSH2 0x100 EXP DUP2 SLOAD DUP2 PUSH2 0xFFFF MUL NOT AND SWAP1 DUP4 PUSH1 0xF0 SHR MUL OR SWAP1 SSTORE POP CALLVALUE DUP1 ISZERO PUSH3 0x12D JUMPI PUSH1 0x0 DUP1 REVERT JUMPDEST POP PUSH3 0x495 JUMP JUMPDEST PUSH1 0x0 DUP2 MLOAD SWAP1 POP SWAP2 SWAP1 POP JUMP JUMPDEST PUSH32 0x4E487B7100000000000000000000000000000000000000000000000000000000 PUSH1 0x0 MSTORE PUSH1 0x41 PUSH1 0x4 MSTORE PUSH1 0x24 PUSH1 0x0 REVERT JUMPDEST PUSH32 0x4E487B7100000000000000000000000000000000000000000000000000000000 PUSH1 0x0 MSTORE PUSH1 0x22 PUSH1 0x4 MSTORE PUSH1 0x24 PUSH1 0x0 REVERT JUMPDEST PUSH1 0x0 PUSH1 0x2 DUP3 DIV SWAP1 POP PUSH1 0x1 DUP3 AND DUP1 PUSH3 0x1B6 JUMPI PUSH1 0x7F DUP3 AND SWAP2 POP JUMPDEST PUSH1 0x20 DUP3 LT DUP2 SUB PUSH3 0x1CC JUMPI PUSH3 0x1CB PUSH3 0x16E JUMP JUMPDEST JUMPDEST POP SWAP2 SWAP1 POP JUMP JUMPDEST PUSH1 0x0 DUP2 SWAP1 POP DUP2 PUSH1 0x0 MSTORE PUSH1 0x20 PUSH1 0x0 KECCAK256 SWAP1 POP SWAP2 SWAP1 POP JUMP JUMPDEST PUSH1 0x0 PUSH1 0x20 PUSH1 0x1F DUP4 ADD DIV SWAP1 POP SWAP2 SWAP1 POP JUMP JUMPDEST PUSH1 0x0 DUP3 DUP3 SHL SWAP1 POP SWAP3 SWAP2 POP POP JUMP JUMPDEST PUSH1 0x0 PUSH1 0x8 DUP4 MUL PUSH3 0x236 PUSH32 0xFFFFFFFFFFFFFFFFFFFFFFFFFFFFFFFFFFFFFFFFFFFFFFFFFFFFFFFFFFFFFFFF DUP3 PUSH3 0x1F7 JUMP JUMPDEST PUSH3 0x242 DUP7 DUP4 PUSH3 0x1F7 JUMP JUMPDEST SWAP6 POP DUP1 NOT DUP5 AND SWAP4 POP DUP1 DUP7 AND DUP5 OR SWAP3 POP POP POP SWAP4 SWAP3 POP POP POP JUMP JUMPDEST PUSH1 0x0 DUP2 SWAP1 POP SWAP2 SWAP1 POP JUMP JUMPDEST PUSH1 0x0 DUP2 SWAP1 POP SWAP2 SWAP1 POP JUMP JUMPDEST PUSH1 0x0 PUSH3 0x28F PUSH3 0x289 PUSH3 0x283 DUP5 PUSH3 0x25A JUMP JUMPDEST PUSH3 0x264 JUMP JUMPDEST PUSH3 0x25A JUMP JUMPDEST SWAP1 POP SWAP2 SWAP1 POP JUMP JUMPDEST PUSH1 0x0 DUP2 SWAP1 POP SWAP2 SWAP1 POP JUMP JUMPDEST PUSH3 0x2AB DUP4 PUSH3 0x26E JUMP JUMPDEST PUSH3 0x2C3 PUSH3 0x2BA DUP3 PUSH3 0x296 JUMP JUMPDEST DUP5 DUP5 SLOAD PUSH3 0x204 JUMP JUMPDEST DUP3 SSTORE POP POP POP POP JUMP JUMPDEST PUSH1 0x0 SWAP1 JUMP JUMPDEST PUSH3 0x2DA PUSH3 0x2CB JUMP JUMPDEST PUSH3 0x2E7 DUP2 DUP5 DUP5 PUSH3 0x2A0 JUMP JUMPDEST POP POP POP JUMP JUMPDEST JUMPDEST DUP2 DUP2 LT ISZERO PUSH3 0x30F JUMPI PUSH3 0x303 PUSH1 0x0 DUP3 PUSH3 0x2D0 JUMP JUMPDEST PUSH1 0x1 DUP2 ADD SWAP1 POP PUSH3 0x2ED JUMP JUMPDEST POP POP JUMP JUMPDEST PUSH1 0x1F DUP3 GT ISZERO PUSH3 0x35E JUMPI PUSH3 0x328 DUP2 PUSH3 0x1D2 JUMP JUMPDEST PUSH3 0x333 DUP5 PUSH3 0x1E7 JUMP JUMPDEST DUP2 ADD PUSH1 0x20 DUP6 LT ISZERO PUSH3 0x343 JUMPI DUP2 SWAP1 POP JUMPDEST PUSH3 0x35B PUSH3 0x352 DUP6 PUSH3 0x1E7 JUMP JUMPDEST DUP4 ADD DUP3 PUSH3 0x2EC JUMP JUMPDEST POP POP JUMPDEST POP POP POP JUMP JUMPDEST PUSH1 0x0 DUP3 DUP3 SHR SWAP1 POP SWAP3 SWAP2 POP POP JUMP JUMPDEST PUSH1 0x0 PUSH3 0x383 PUSH1 0x0 NOT DUP5 PUSH1 0x8 MUL PUSH3 0x363 JUMP JUMPDEST NOT DUP1 DUP4 AND SWAP2 POP POP SWAP3 SWAP2 POP POP JUMP JUMPDEST PUSH1 0x0 PUSH3 0x39E DUP4 DUP4 PUSH3 0x370 JUMP JUMPDEST SWAP2 POP DUP3 PUSH1 0x2 MUL DUP3 OR SWAP1 POP SWAP3 SWAP2 POP POP JUMP JUMPDEST PUSH3 0x3B9 DUP3 PUSH3 0x134 JUMP JUMPDEST PUSH8 0xFFFFFFFFFFFFFFFF DUP2 GT ISZERO PUSH3 0x3D5 JUMPI PUSH3 0x3D4 PUSH3 0x13F JUMP JUMPDEST JUMPDEST PUSH3 0x3E1 DUP3 SLOAD PUSH3 0x19D JUMP JUMPDEST PUSH3 0x3EE DUP3 DUP3 DUP6 PUSH3 0x313 JUMP JUMPDEST PUSH1 0x0 PUSH1 0x20 SWAP1 POP PUSH1 0x1F DUP4 GT PUSH1 0x1 DUP2 EQ PUSH3 0x426 JUMPI PUSH1 0x0 DUP5 ISZERO PUSH3 0x411 JUMPI DUP3 DUP8 ADD MLOAD SWAP1 POP JUMPDEST PUSH3 0x41D DUP6 DUP3 PUSH3 0x390 JUMP JUMPDEST DUP7 SSTORE POP PUSH3 0x48D JUMP JUMPDEST PUSH1 0x1F NOT DUP5 AND PUSH3 0x436 DUP7 PUSH3 0x1D2 JUMP JUMPDEST PUSH1 0x0 JUMPDEST DUP3 DUP2 LT ISZERO PUSH3 0x460 JUMPI DUP5 DUP10 ADD MLOAD DUP3 SSTORE PUSH1 0x1 DUP3 ADD SWAP2 POP PUSH1 0x20 DUP6 ADD SWAP5 POP PUSH1 0x20 DUP2 ADD SWAP1 POP PUSH3 0x439 JUMP JUMPDEST DUP7 DUP4 LT ISZERO PUSH3 0x480 JUMPI DUP5 DUP10 ADD MLOAD PUSH3 0x47C PUSH1 0x1F DUP10 AND DUP3 PUSH3 0x370 JUMP JUMPDEST DUP4 SSTORE POP JUMPDEST PUSH1 0x1 PUSH1 0x2 DUP9 MUL ADD DUP9 SSTORE POP POP POP JUMPDEST POP POP POP POP POP POP JUMP JUMPDEST PUSH2 0x499 DUP1 PUSH3 0x4A5 PUSH1 0x0 CODECOPY PUSH1 0x0 RETURN INVALID PUSH1 0x80 PUSH1 0x40 MSTORE CALLVALUE DUP1 ISZERO PUSH2 0x10 JUMPI PUSH1 0x0 DUP1 REVERT JUMPDEST POP PUSH1 0x4 CALLDATASIZE LT PUSH2 0x62 JUMPI PUSH1 0x0 CALLDATALOAD PUSH1 0xE0 SHR DUP1 PUSH4 0xDBE671F EQ PUSH2 0x67 JUMPI DUP1 PUSH4 0x26121FF0 EQ PUSH2 0x85 JUMPI DUP1 PUSH4 0x4DF7E3D0 EQ PUSH2 0xA3 JUMPI DUP1 PUSH4 0x8A054AC2 EQ PUSH2 0xC1 JUMPI DUP1 PUSH4 0xC3DA42B8 EQ PUSH2 0xDF JUMPI DUP1 PUSH4 0xFFAE15BA EQ PUSH2 0xFD JUMPI JUMPDEST PUSH1 0x0 DUP1 REVERT JUMPDEST PUSH2 0x6F PUSH2 0x11B JUMP JUMPDEST PUSH1 0x40 MLOAD PUSH2 0x7C SWAP2 SWAP1 PUSH2 0x21A JUMP JUMPDEST PUSH1 0x40 MLOAD DUP1 SWAP2 SUB SWAP1 RETURN JUMPDEST PUSH2 0x8D PUSH2 0x121 JUMP JUMPDEST PUSH1 0x40 MLOAD PUSH2 0x9A SWAP2 SWAP1 PUSH2 0x270 JUMP JUMPDEST PUSH1 0x40 MLOAD DUP1 SWAP2 SUB SWAP1 RETURN JUMPDEST PUSH2 0xAB PUSH2 0x134 JUMP JUMPDEST PUSH1 0x40 MLOAD PUSH2 0xB8 SWAP2 SWAP1 PUSH2 0x2A4 JUMP JUMPDEST PUSH1 0x40 MLOAD DUP1 SWAP2 SUB SWAP1 RETURN JUMPDEST PUSH2 0xC9 PUSH2 0x13A JUMP JUMPDEST PUSH1 0x40 MLOAD PUSH2 0xD6 SWAP2 SWAP1 PUSH2 0x2DA JUMP JUMPDEST PUSH1 0x40 MLOAD DUP1 SWAP2 SUB SWAP1 RETURN JUMPDEST PUSH2 0xE7 PUSH2 0x14D JUMP JUMPDEST PUSH1 0x40 MLOAD PUSH2 0xF4 SWAP2 SWAP1 PUSH2 0x385 JUMP JUMPDEST PUSH1 0x40 MLOAD DUP1 SWAP2 SUB SWAP1 RETURN JUMPDEST PUSH2 0x105 PUSH2 0x1DB JUMP JUMPDEST PUSH1 0x40 MLOAD PUSH2 0x112 SWAP2 SWAP1 PUSH2 0x3E8 JUMP JUMPDEST PUSH1 0x40 MLOAD DUP1 SWAP2 SUB SWAP1 RETURN JUMPDEST PUSH1 0x0 SLOAD DUP2 JUMP JUMPDEST PUSH1 0x3 PUSH1 0x15 SWAP1 SLOAD SWAP1 PUSH2 0x100 EXP SWAP1 DIV PUSH1 0xF0 SHL DUP2 JUMP JUMPDEST PUSH1 0x1 SLOAD DUP2 JUMP JUMPDEST PUSH1 0x3 PUSH1 0x0 SWAP1 SLOAD SWAP1 PUSH2 0x100 EXP SWAP1 DIV PUSH1 0xFF AND DUP2 JUMP JUMPDEST PUSH1 0x2 DUP1 SLOAD PUSH2 0x15A SWAP1 PUSH2 0x432 JUMP JUMPDEST DUP1 PUSH1 0x1F ADD PUSH1 0x20 DUP1 SWAP2 DIV MUL PUSH1 0x20 ADD PUSH1 0x40 MLOAD SWAP1 DUP2 ADD PUSH1 0x40 MSTORE DUP1 SWAP3 SWAP2 SWAP1 DUP2 DUP2 MSTORE PUSH1 0x20 ADD DUP3 DUP1 SLOAD PUSH2 0x186 SWAP1 PUSH2 0x432 JUMP JUMPDEST DUP1 ISZERO PUSH2 0x1D3 JUMPI DUP1 PUSH1 0x1F LT PUSH2 0x1A8 JUMPI PUSH2 0x100 DUP1 DUP4 SLOAD DIV MUL DUP4 MSTORE SWAP2 PUSH1 0x20 ADD SWAP2 PUSH2 0x1D3 JUMP JUMPDEST DUP3 ADD SWAP2 SWAP1 PUSH1 0x0 MSTORE PUSH1 0x20 PUSH1 0x0 KECCAK256 SWAP1 JUMPDEST DUP2 SLOAD DUP2 MSTORE SWAP1 PUSH1 0x1 ADD SWAP1 PUSH1 0x20 ADD DUP1 DUP4 GT PUSH2 0x1B6 JUMPI DUP3 SWAP1 SUB PUSH1 0x1F AND DUP3 ADD SWAP2 JUMPDEST POP POP POP POP POP DUP2 JUMP JUMPDEST PUSH1 0x3 PUSH1 0x1 SWAP1 SLOAD SWAP1 PUSH2 0x100 EXP SWAP1 DIV PUSH20 0xFFFFFFFFFFFFFFFFFFFFFFFFFFFFFFFFFFFFFFFF AND DUP2 JUMP JUMPDEST PUSH1 0x0 DUP2 SWAP1 POP SWAP2 SWAP1 POP JUMP JUMPDEST PUSH2 0x214 DUP2 PUSH2 0x201 JUMP JUMPDEST DUP3 MSTORE POP POP JUMP JUMPDEST PUSH1 0x0 PUSH1 0x20 DUP3 ADD SWAP1 POP PUSH2 0x22F PUSH1 0x0 DUP4 ADD DUP5 PUSH2 0x20B JUMP JUMPDEST SWAP3 SWAP2 POP POP JUMP JUMPDEST PUSH1 0x0 PUSH32 0xFFFF000000000000000000000000000000000000000000000000000000000000 DUP3 AND SWAP1 POP SWAP2 SWAP1 POP JUMP JUMPDEST PUSH2 0x26A DUP2 PUSH2 0x235 JUMP JUMPDEST DUP3 MSTORE POP POP JUMP JUMPDEST PUSH1 0x0 PUSH1 0x20 DUP3 ADD SWAP1 POP PUSH2 0x285 PUSH1 0x0 DUP4 ADD DUP5 PUSH2 0x261 JUMP JUMPDEST SWAP3 SWAP2 POP POP JUMP JUMPDEST PUSH1 0x0 DUP2 SWAP1 POP SWAP2 SWAP1 POP JUMP JUMPDEST PUSH2 0x29E DUP2 PUSH2 0x28B JUMP JUMPDEST DUP3 MSTORE POP POP JUMP JUMPDEST PUSH1 0x0 PUSH1 0x20 DUP3 ADD SWAP1 POP PUSH2 0x2B9 PUSH1 0x0 DUP4 ADD DUP5 PUSH2 0x295 JUMP JUMPDEST SWAP3 SWAP2 POP POP JUMP JUMPDEST PUSH1 0x0 DUP2 ISZERO ISZERO SWAP1 POP SWAP2 SWAP1 POP JUMP JUMPDEST PUSH2 0x2D4 DUP2 PUSH2 0x2BF JUMP JUMPDEST DUP3 MSTORE POP POP JUMP JUMPDEST PUSH1 0x0 PUSH1 0x20 DUP3 ADD SWAP1 POP PUSH2 0x2EF PUSH1 0x0 DUP4 ADD DUP5 PUSH2 0x2CB JUMP JUMPDEST SWAP3 SWAP2 POP POP JUMP JUMPDEST PUSH1 0x0 DUP2 MLOAD SWAP1 POP SWAP2 SWAP1 POP JUMP JUMPDEST PUSH1 0x0 DUP3 DUP3 MSTORE PUSH1 0x20 DUP3 ADD SWAP1 POP SWAP3 SWAP2 POP POP JUMP JUMPDEST PUSH1 0x0 JUMPDEST DUP4 DUP2 LT ISZERO PUSH2 0x32F JUMPI DUP1 DUP3 ADD MLOAD DUP2 DUP5 ADD MSTORE PUSH1 0x20 DUP2 ADD SWAP1 POP PUSH2 0x314 JUMP JUMPDEST PUSH1 0x0 DUP5 DUP5 ADD MSTORE POP POP POP POP JUMP JUMPDEST PUSH1 0x0 PUSH1 0x1F NOT PUSH1 0x1F DUP4 ADD AND SWAP1 POP SWAP2 SWAP1 POP JUMP JUMPDEST PUSH1 0x0 PUSH2 0x357 DUP3 PUSH2 0x2F5 JUMP JUMPDEST PUSH2 0x361 DUP2 DUP6 PUSH2 0x300 JUMP JUMPDEST SWAP4 POP PUSH2 0x371 DUP2 DUP6 PUSH1 0x20 DUP7 ADD PUSH2 0x311 JUMP JUMPDEST PUSH2 0x37A DUP2 PUSH2 0x33B JUMP JUMPDEST DUP5 ADD SWAP2 POP POP SWAP3 SWAP2 POP POP JUMP JUMPDEST PUSH1 0x0 PUSH1 0x20 DUP3 ADD SWAP1 POP DUP2 DUP2 SUB PUSH1 0x0 DUP4 ADD MSTORE PUSH2 0x39F DUP2 DUP5 PUSH2 0x34C JUMP JUMPDEST SWAP1 POP SWAP3 SWAP2 POP POP JUMP JUMPDEST PUSH1 0x0 PUSH20 0xFFFFFFFFFFFFFFFFFFFFFFFFFFFFFFFFFFFFFFFF DUP3 AND SWAP1 POP SWAP2 SWAP1 POP JUMP JUMPDEST PUSH1 0x0 PUSH2 0x3D2 DUP3 PUSH2 0x3A7 JUMP JUMPDEST SWAP1 POP SWAP2 SWAP1 POP JUMP JUMPDEST PUSH2 0x3E2 DUP2 PUSH2 0x3C7 JUMP JUMPDEST DUP3 MSTORE POP POP JUMP JUMPDEST PUSH1 0x0 PUSH1 0x20 DUP3 ADD SWAP1 POP PUSH2 0x3FD PUSH1 0x0 DUP4 ADD DUP5 PUSH2 0x3D9 JUMP JUMPDEST SWAP3 SWAP2 POP POP JUMP JUMPDEST PUSH32 0x4E487B7100000000000000000000000000000000000000000000000000000000 PUSH1 0x0 MSTORE PUSH1 0x22 PUSH1 0x4 MSTORE PUSH1 0x24 PUSH1 0x0 REVERT JUMPDEST PUSH1 0x0 PUSH1 0x2 DUP3 DIV SWAP1 POP PUSH1 0x1 DUP3 AND DUP1 PUSH2 0x44A JUMPI PUSH1 0x7F DUP3 AND SWAP2 POP JUMPDEST PUSH1 0x20 DUP3 LT DUP2 SUB PUSH2 0x45D JUMPI PUSH2 0x45C PUSH2 0x403 JUMP JUMPDEST JUMPDEST POP SWAP2 SWAP1 POP JUMP INVALID LOG2 PUSH5 0x6970667358 0x22 SLT KECCAK256 0xAF CODESIZE 0xFC 0xBA 0xC7 PUSH10 0xE67FD864ECA3A108E689 PREVRANDAO PREVRANDAO 0x5E 0xC8 SAR 0x4A 0x2E 0xCA DUP14 0x4B 0x23 CALLCODE PUSH32 0x85970264736F6C63430008130033000000000000000000000000000000000000 "
				},
				"gasEstimates": {
					"creation": {
						"codeDepositCost": "235400",
						"executionCost": "infinite",
						"totalCost": "infinite"
					},
					"external": {
						"a()": "2407",
						"b()": "2451",
						"c()": "infinite",
						"d()": "2515",
						"e()": "2652",
						"f()": "2521"
					}
				},
				"methodIdentifiers": {
					"a()": "0dbe671f",
					"b()": "4df7e3d0",
					"c()": "c3da42b8",
					"d()": "8a054ac2",
					"e()": "ffae15ba",
					"f()": "26121ff0"
				}
			},
			"storageLayout": {
				"storage": [
					{
						"astId": 4,
						"contract": "day1/ValueType.sol:valueType",
						"label": "a",
						"offset": 0,
						"slot": "0",
						"type": "t_uint256"
					},
					{
						"astId": 8,
						"contract": "day1/ValueType.sol:valueType",
						"label": "b",
						"offset": 0,
						"slot": "1",
						"type": "t_int256"
					},
					{
						"astId": 11,
						"contract": "day1/ValueType.sol:valueType",
						"label": "c",
						"offset": 0,
						"slot": "2",
						"type": "t_string_storage"
					},
					{
						"astId": 14,
						"contract": "day1/ValueType.sol:valueType",
						"label": "d",
						"offset": 0,
						"slot": "3",
						"type": "t_bool"
					},
					{
						"astId": 17,
						"contract": "day1/ValueType.sol:valueType",
						"label": "e",
						"offset": 1,
						"slot": "3",
						"type": "t_address"
					},
					{
						"astId": 20,
						"contract": "day1/ValueType.sol:valueType",
						"label": "f",
						"offset": 21,
						"slot": "3",
						"type": "t_bytes2"
					}
				],
				"types": {
					"t_address": {
						"encoding": "inplace",
						"label": "address",
						"numberOfBytes": "20"
					},
					"t_bool": {
						"encoding": "inplace",
						"label": "bool",
						"numberOfBytes": "1"
					},
					"t_bytes2": {
						"encoding": "inplace",
						"label": "bytes2",
						"numberOfBytes": "2"
					},
					"t_int256": {
						"encoding": "inplace",
						"label": "int256",
						"numberOfBytes": "32"
					},
					"t_string_storage": {
						"encoding": "bytes",
						"label": "string",
						"numberOfBytes": "32"
					},
					"t_uint256": {
						"encoding": "inplace",
						"label": "uint256",
						"numberOfBytes": "32"
					}
				}
			},
			"userdoc": {
				"kind": "user",
				"methods": {},
				"version": 1
			}
		}
	}
}